:020000041000EA
:10000000F87F02303908001037080010350800105A
:1000100037080010370800103708001037080010A4
:1000200000000000000000003067000037080010EA
:1000300037080010000000003708001037080010D3
:10004000B1110010370800103708001037080010F1
:100050003708001037080010ED11001037080010A5
:1000600000000000370800103708001000000000F2
:1000700037080010370800100000000000000000E2
:100080006D15001037080010370800100000000040
:100090003708001037080010370800103708001024
:1000A00000000000370800103708001000000000B2
:1000B00000000000370800100000000000000000F1
:1000C00037080010370800103708001037080010F4
:1000D0003708001000000000000000003708001082
:1000E00037080010370800103708001037080010D4
:1000F000AD4900103708001037080010370800100D
:100100000348044B834202D0034B03B118477047A6
:10011000A0100030A010003000000000064B07497E
:10012000C91A891048BF0131491003D0044B0BB1E3
:1001300001481847704700BFA0100030A0100030E1
:100140000000000010B5064C237843B9FFF7D8FF34
:10015000044B13B10448AFF300800123237010BD9A
:10016000A010003000000000A056001008B5054B9C
:100170001BB105490548AFF30080BDE80840FFF713
:10018000CDBF00BF00000000A4100030A05600103A
:10019000A3F5803A704700BF174B002B08BF134BE5
:1001A0009D46FFF7F5FF00218B460F461348144A82
:1001B000121A04F015FD0E4B002B00D098470D4B82
:1001C000002B00D098470020002104000D000D48AE
:1001D000002802D00C48AFF3008004F001FC20009E
:1001E000290000F023F904F0E9FB00BF000008003B
:1001F0000000000000000000F87F0230A010003076
:100200007C2700300000000000000000024B9868CE
:10021000C0F30020704700BF00900050084604F073
:1002200019BC00000368013306D0044B98600368D2
:1002300083F3088843681847704700BF00ED00E06B
:1002400070B506460D460024AC4200D370BD2B1B92
:10025000B3F5803F04EB06010BD98BB263B90320E1
:1002600000F002FE04F58034FFF7D0FF0028FBD138
:10027000EAE7B3F5004F08D9C1F30E032BB902200A
:1002800000F0F2FD04F50044EEE7012000F0ECFD83
:1002900004F58054E8E700002DE9F0414FF0FF330A
:1002A000054601F003048F08DFF878C021F0030150
:1002B00001448D421CD1C4B10022114650F82700E0
:1002C000184DE40020FA01F1C9B24B40082103F0B7
:1002D00001065B0806B16B40013989B20029F6D1ED
:1002E000083292B2A2421146ECDBD843BDE8F0815D
:1002F0000026D5F800E02EFA06F2D2B253400822CA
:1003000003F001085B08B8F1000F01D083EA0C0389
:10031000013A92B2002AF3D10836202EEBD10435EF
:10032000C7E700BF2083B8ED08B104F08BBB70476E
:100330000846FFF7F9BF000010B510F00304C3B280
:100340000ED113F00C0F04D1DA0609D49B0609D4A0
:1003500003244422FF21044804F042FC204610BD3F
:100360000124F6E70224F9E70000003070B538B93F
:100370004FF080544FF4FE43A66A36B9002070BD9A
:10038000214C4FF41123A66AF7E79E42F6D21F498B
:100390001F48314421F0FF0100F022FDFFF736FF36
:1003A0000028FBD11A4D1B4B2A689A42E6D16B6894
:1003B000B342E3D12046184A314600F0ABFC174A5D
:1003C00005F108042835234603CBAB421060516089
:1003D0001C4602F10802F6D1114C124A04F1200524
:1003E000234603CBAB42106051601C4602F1080269
:1003F000F6D100F03DFB0C4A0749084800F0DEFA50
:10040000B0FA80F04009BAE700800010FF800010C9
:1004100064120030534EBF58C41100302412003013
:100420008C12003044120030E411003000202DE91D
:10043000F04FADF56B7DA0F11003012B00F101042D
:1004400001D82046F7E7A0F10A03012B02D90021C9
:1004500000F012FF202C2046EDD14FF0A0431B6886
:100460004FF050231B69524E18460693FFF764FF66
:10047000307010B94F48FFF7D5FE4F4D4F4C2F4607
:10048000DFF85C81204600F0D1FC05F8010B04F197
:10049000200000F0CBFC01344445E877F2D13B6802
:1004A0003A6A013B03332DD8541C2BD052B3307819
:1004B000012803D1FFF75AFF20BBFEE702280AD12B
:1004C0003F4CDFF820816368434509D00120FFF7E6
:1004D0004DFFB8B9F1E70120FFF748FF90B9ECE70D
:1004E000637ED4F81090D8074CBFD4F81A50D9F8CE
:1004F000285085B9012323760120FFF737FF002814
:1005000000F08B81069B9B0701D002F0B1F92948CE
:10051000FFF788FEFEE7236A2A4F9D423B6001D326
:100520000223E8E709EB0503C5F1E00153FA81F185
:10053000254821F0FF0100F053FCFFF767FE00287B
:10054000FBD1214E214B32689A4201D00323D2E7DE
:1005500073689D4201D00423CDE729461C4A4846D2
:1005600000F0D8FB1B4A06F1080528362B4603CBC2
:10057000B342106051601D4602F10802F6D1164DDB
:10058000164A05F120062B4603CBB342106051609A
:100590001D4602F10802F6D100F06AFA064A0C493B
:1005A0000C4800F00BFA0546F0B10523A3E700BFA5
:1005B000BC11003000800010E4110030A1E10F10E8
:1005C00000000030C011003064120030534EBF589C
:1005D000C4110030241200308C120030441200305C
:1005E000C1E10F1043655AA56368434584D1237E5A
:1005F000FF2B81D1E1682069FFF74EFEA668864295
:1006000040F00981636985488342C0F00281637EBE
:1006100013F00103089300F0E0803968FFF710FE43
:10062000D4F8148026690DAC2746A81900F0FEFB0B
:1006300004F8010BFFF7EAFD0028FBD101350D2D71
:10064000F3D105460EAA12F8013F83400830402836
:100650001D44F8D1002439460522714B11A8159488
:100660001394A34603F09AFD2F4606F10D03264688
:1006700011A809930DF12C0903F045FB04945E4584
:100680000AD1099B04994FF480726648591804F006
:10069000CBF900264FF4807BABEB0603C9F80030A2
:1006A0004FF40073691C0C9371D09F426FD2089B6A
:1006B0000C970DF12B02CDE901325A4B0CAA3344B1
:1006C0006AA9CDF8009011A803F0C0FC0C9AD9F8E3
:1006D0000030049902EB040A19441E44BAF1FF0FDA
:1006E0002AAB0790A7EB0207049103EB040050D953
:1006F000AAF580746AA9121B04F096F941462AA84B
:1007000000F00AFCFFF782FD01460028FAD108F547
:1007100080734FF480722AA8059304F061FAFF2CCD
:100720001BD90C996AAB091B19444FF480722AA893
:1007300004F07AF905992AA8AAF5007400F0ECFBF8
:10074000FFF764FD01460028FAD108F500734FF465
:1007500080722AA8059304F043FA0C996AAB091B2E
:10076000224619442AA804F05FF9DDF81480AFB1DD
:100770004FF4007200216AA804F032FA079BC3B15B
:10078000274911A803F0DDFC079B33B33DE00023AC
:100790008FE76AA904F048F95446E8E7002CE7D04F
:1007A00041462AA800F0B8FBFFF730FD0028FBD136
:1007B000DEE76A1C01D0002FE2D0D9F800300C9A95
:1007C00013437FF45CAF0135154911A81BD19DF887
:1007D0002B30012B17D103F0B4FC0022124B012067
:1007E0001A76FFF7C3FD00287FF48CAEBFF34F8F5E
:1007F0000E490F4BCA6802F4E0621343CB60BFF3AB
:100800004F8F00BFFDE703F09CFC0822064B1A76D1
:1008100072E607236FE606236DE64EE600800010C1
:10082000C44C0010BC1000300000003000ED00E0AF
:100830000400FA05FEE7FEE708B5214B83F30888BC
:1008400083F309881F4B83F30A8883F30B881E4BBD
:100850001E4A5A601A6004F073F84FF0502318686B
:100860005A6842F001025A601861FFF765FDC8B985
:100870001748FFF7D7FCFEE7186850F82240586881
:1008800040F82240013298688242F5D30C338B4203
:1008900006D300200F4B10498B420FD3FFF77CFC8F
:1008A0000022F0E70D4B0E49F1E71C6844F82200E6
:1008B00001325C68A242F8D30833EDE70022F8E782
:1008C000F87F023000800130F87F0230A5EDF5FEA0
:1008D00000800010C4560010D4560010AC56001012
:1008E000C456001008B54FF488720249024804F05B
:1008F0009BF808BD18500010E016007008B54FF4C2
:10090000AA720249024804F08FF808BD285100106D
:100910000015007008B54FF4CA720249024804F08D
:1009200083F808BDFC5200105C13007008B58022EB
:100930000249034804F078F808BD00BF7C5200105B
:100940005416007008B5DC220249034804F06CF824
:1009500008BD00BF3C4F001080120070031F1C3008
:1009600053F8042F1AB98342FAD1012070470020AE
:10097000704710B500F12003203153F8044D51F8B1
:10098000042D944204D805D38342F6D1002010BD33
:100990000120FCE74FF0FF30F9E74FF0E042136829
:1009A000090223F4FF5301F4F85123F01F03194304
:1009B000014341F480311160704700002DE9F0419E
:1009C00004460F461646FFF7C9FF30B904F1200868
:1009D0004046FFF7C3FF054610B10520BDE8F08192
:1009E00021461C48FFF7C5FF0128F6D141461948AA
:1009F000FFF7BFFF0128F0D108222146164800F07A
:100A00008CF808224146154800F087F8082239463C
:100A1000134800F082F808223146124800F07DF8B1
:100A20000822114806F1200100F077F82946082035
:100A3000FFF7B3FF4FF0E0431A68D201FCD51A6804
:100A400042F000421A60094BD3F8003C012BC4D19C
:100A50000020C3E790540010D81C0070B41C007034
:100A6000441D0070FC1C0070201D00700010007000
:100A7000154B164A10B516491A60164C082216482E
:100A800000F04BF808221549154800F046F82146B9
:100A90000822144800F041F804F12001082212480D
:100AA00000F03BF8FFF71EFFFFF740FFFFF732FFB4
:100AB000FFF724FFFFF746FF4FF41C720B490C4869
:100AC00003F0B2FF10BD00BF641300300000C5EC9E
:100AD000F0540010B0540010001800709054001032
:100AE000481C00702418007048180070CC4C00108E
:100AF0000010007078B171B16AB188420BD001EB7F
:100B00008202043852F8043D1BBA8A4240F8043F7E
:100B1000F8D10020704701207047002310B59342A0
:100B200003D1002240F8232010BD51F8234040F8A3
:100B300023400133F3E7002310B5934200D110BDE9
:100B400051F8234040F823400133F6E74FF0E043EB
:100B50001A681201FCD41A68920142BF1A6842F066
:100B600000421A604FF0E043D86019611A6842F4FD
:100B700000321A607047000038B500234FF4B442C9
:100B80004FF0E044C0E900330B4B1A60256815F0C4
:100B9000406500D0FEE7082208490948FFF7CBFF6F
:100BA000402208490848FFF7C6FF4FF48073A5604C
:100BB00063600123636138BD641300305056001038
:100BC0000019007050550010001800702DE9F8430E
:100BD0001F4B05461B680E46B3F5B44F144635D17E
:100BE000A2B3036803F03F07D318036022BF436832
:100BF000013343604FB93F2A1BD805F10800224654
:100C00003146384403F010FF1BE0C7F140094A4564
:100C1000F3D300F108084A4608EB0700403C03F014
:100C200003FF3C4440214046FFF790FF3F2C4E44D9
:100C300006D924F03F013046FFF788FF641A0E44BE
:100C400014B90020BDE8F8830027D6E70520F9E7AE
:100C5000641300302A4B37B51B680546B3F5B44F13
:100C60000C464AD1002948D0D0E90021530F43EA6D
:100C7000C1031BBA0093D30002F03F02372A1BBA0C
:100C800094BFC2F13802C2F178021E490193FFF706
:100C90009DFF082269462846FFF798FF4FF0E04382
:100CA0001A689201FCD51A68174942F000421A608E
:100CB000164B1748D3F8002912BA2260D3F804293A
:100CC00012BA6260D3F8082912BAA260D3F80C29CC
:100CD00012BAE260D3F8102912BA2261D3F81429AB
:100CE00012BA6261D3F8182912BAA261D3F81C397A
:100CF00008221BBAE361FFF71EFF03B030BD00BF3F
:100D00006413003010550010505600100010007091
:100D100000190070F0B59BB0054608A80C461646B1
:100D2000FFF72AFFB4F5803F274628BF4FF48037EE
:100D300029463A4608A8FFF749FFE41B05F5803528
:100D4000F0D1694608A8FFF785FF082269463046BA
:100D5000FFF7D0FE1BB0F0BD024B9868C0F3002037
:100D6000704700BF009000500C4B9A6B0C4B9842A0
:100D700011D3C2F307420139132A084409D0094BA1
:100D80000949142A08BF0B46984234BF00200120AD
:100D90007047064BF8E70120704700BF00900050F5
:100DA0000070001000E01F1000E00F1000E00710BE
:100DB000024B986B20F07F40704700BF00900050BE
:100DC000064B986BC0F30740132805D0142803D0B6
:100DD000152814BF00201520704700BF0090005058
:100DE00038B50C4605464FF480712046FFF7BCFF2E
:100DF000012813D0FFF7B0FF88B900F0C5FA082228
:100E0000084B1A60084A5C605D615A6401229A606E
:100E100000F0C2FAFFF7A0FF0028FBD138BD032085
:100E2000FCE700BF009000505442415270B50646A6
:100E3000FFF792FF05460028FAD100F0A5FA084C0A
:100E4000084B2560666063640123A36000F0A4FA88
:100E5000FFF782FF0028FBD12069C0F3072070BD97
:100E60000090005054424152042838B50C4602D933
:100E70000124204638BD0138032803D8DFE800F0FC
:100E8000232E3842224DAB6BDBB2852BF0D14FF4D1
:100E900080712046FFF768FF0128E9D020232B60EE
:100EA000FFF75AFF88BB00F06FFA194B194A5C60D4
:100EB0005A6401229A60FFF74FFF04460028FAD1D6
:100EC00000F06AFAD5E74FF480512046FFF74CFF57
:100ED0000128CDD021220E4B1A60E1E74FF40041EA
:100EE0002046FFF741FF0128C2D02222084BF3E73A
:100EF0004FF480312046FFF737FF0128B8D0242275
:100F0000034BE9E76122024BE6E70324B1E700BFA8
:100F1000009000505442415270B50D4606464FF4C1
:100F200080712846FFF720FF0128044614D0FFF700
:100F300013FF98B900F028FA1822094B1A60094AE1
:100F40005D605E615A6401229A60FFF705FF044606
:100F50000028FAD100F020FA204670BD0324FBE7F8
:100F600000900050544241520288044B1A62428859
:100F70005A6282889A62C288DA6270470090005092
:100F8000194B13B59C6B00F0DFF946F2C803A4B20D
:100F90009C420BBF1422282211461E21F8B11028B2
:100FA0001FD0112814BF2023402359435A4303EB79
:100FB000430003EB830303EB830302309B00ADF894
:100FC00000000232023368460231ADF80210ADF87B
:100FD0000420ADF80630FFF7C7FF02B010BD202394
:100FE000E3E73023E1E700BF0090005010B5024670
:100FF0000C0BFFF7B1FE78B9032C0FD84820084B33
:10100000186059605A61074A5A6401229A60FFF7D2
:10101000A3FE0028FBD110BD0320FCE70120FAE766
:10102000009000505442415208B5114B114A9B6B3D
:1010300023F07F4393420BD007D80F4A93420ED040
:101040000E4A93420BD0002008BD0D4A9342FAD1BC
:101050000021FFF7CBFF401A18BF0120F4E74FF43F
:101060000051FFF7C3FF003818BF0120ECE700BFB5
:1010700000900050C865140085601300C86014001B
:10108000C865150010B5FFF767FEE8B900F07CF9F8
:1010900021230E4A1360FFF793FE14280ED10C4B48
:1010A00053600C4B536401239360FFF755FE0446D5
:1010B0000028FAD100F070F9204610BDFFF780FE3D
:1010C0001528EED1044BEBE70324F5E70090005020
:1010D00000F00F105442415200F01F1038B5054681
:1010E0000C46FFF739FE38BBFFF76AFE14281CD107
:1010F00001F17043A3F57F23B3F5805F12D800F0B0
:1011000043F918220D4B1A600D4A5C605D615A6408
:1011100001229A60FFF720FE04460028FAD100F071
:101120003BF900E00124204638BDFFF749FE1528B1
:10113000E5D1044B0B44DFE70324F4E700900050B3
:10114000544241520010E0EF38B504460D46FFF717
:1011500003FE18BBFFF734FE142819D1104B2344AB
:10116000072B12D800F010F910220E4B1A600E4A0D
:101170005C601D615A6401229A60FFF7EDFD044630
:101180000028FAD100F008F900E00124204638BD1B
:10119000FFF716FE1528E5D1044BE0E70324F5E739
:1011A0002800F0EF00900050544241522800E0EF38
:1011B0002DE9F041012600240A4F0B4DD7F8048099
:1011C00018EA060F05D02B683E6313B12046696804
:1011D00098470134202C4FEA460605F10805EFD167
:1011E000BDE8F08100100050681300300122034B6D
:1011F0005A61034B1B6803B1184770470000015048
:1012000068140030202810B514D83F24C30020F003
:10121000030000F1A040D0F8802003F018039C40A8
:1012200022EA0402C0F88020D0F8802099401143BF
:10123000C0F8801010BD202810B51CD83F24C1F381
:1012400002739B0003F1A04301F01802D3F8A01031
:10125000944021EA0401C3F8A010D3F8A0109040F4
:101260000843D11D0122C3F8A000D3F8A0008A4092
:101270000243C3F8A02010BD1F28F8B504460D4650
:101280001ED8A0F10A03012B1AD90F2918D80D4E28
:1012900001EBC00306EB03135A68C70001320FD0FD
:1012A00099684A1C01D0FFF7ADFF2F4406EB0716E3
:1012B000F1684B1C04D02046BDE8F840FFF7BBBFE7
:1012C000F8BD00BF44000030182837D84FF0A043C5
:1012D00000210328596018D85A6861F3CF325A6048
:1012E00001BF174AD2F88C3043F48033C2F88C30F7
:1012F0004FF0A042536823F003035360536823F078
:101300000303034300205360704759680D4A21F4DA
:10131000E06102EA00220A435A605A6842F400423D
:101320005A604FF4806300BF013BFCD14FF0A042F4
:10133000536823F0030343F00103E3E705207047FC
:101340000060005000EFFFFF4FF0A043586800F02E
:101350000300012802BF5868C0F302201030704714
:10136000032801BF074AD2F88C3043F48033C2F817
:101370008C304FF0A0435A6860F383025A6000201B
:10138000704700BF0060005072B6024A1368013314
:10139000136070476C140030034A1368013B1360FC
:1013A00003B962B6704700BF6C14003008B5FFF790
:1013B00007FD142811D0FFF703FD15280BD1084AAB
:1013C000084B18787D2807D03E2804D03D2803D04C
:1013D00001339342F5D33E2008BD034A034BF0E7A7
:1013E000DFFF1F10D8FF1F10DFFF0F10D8FF0F10F7
:1013F00070472DE9F04705688046EB696F684468DF
:101400001F4017F0200608D02023EB61002302269E
:101410002269EB64A26184F825307B0609D540235C
:10142000EB61002362692B6546F00106E26184F8F6
:10143000243078072CD56A6902F01E036B6112F024
:1014400002031FBF94F8203043F0080384F82030D3
:101450000423510741BF94F8201043F0400341F0AA
:10146000400184F82010D00641BF94F8201043F0CA
:10147000100341F0100184F82010110741BF94F8C7
:10148000202043F0200342F0200284F820201E4355
:1014900017F0110F21D0112307F01009EB616B69D0
:1014A000DA071AD598F80C202AB1D4E900314FF4A4
:1014B00080709847F3E7A16928684B1CA361A36873
:1014C0005854A169236999422ED16B6846F00206EF
:1014D00023F011036B6084F82520BB072AD5022373
:1014E0001022EB616069E369984206D0591CE16102
:1014F000E168013ACB5C2B60F4D1E16998F80920EE
:101500008842236816D16968013A21F002016960B6
:101510000021012A84F8241046F0010601D838077A
:101520000FD4C3B9BDE8F087B9F1000FB7D046F0CA
:101530000806B4E798F80930013B012B10D83907A9
:101540000ED5AA692368D2070AD50122AA61002B09
:10155000E8D046F0800630466168BDE8F04718479D
:101560002368002BDED0002EDCD0F4E70148FFF723
:1015700040BF00BF7056001007EE100AB1F901001D
:1015800091F9032006EE900A91F90630F8EEE66A2A
:101590009B1A07EE903A37EE667AF8EEE77AB1F9E1
:1015A000043067EE877A1B1A07EE103AF8EEC76A26
:1015B00087EEA67AF2EE046A27EE267AC7EE267A3E
:1015C000BCEEC77AFCEEE77A17EE103A17EE900AF7
:1015D000104403B1013040F0004070470E4B984278
:1015E00008D8023B984212D8143B984204D8023BD8
:1015F000984207D805207047084B0344022BF9D8BE
:101600000F2900E01F298CBF0520002070470A2900
:1016100014BF0520002070471800015AFDFFFEA5E9
:1016200038B5054600F12640A0F10110032807EE69
:10163000101AB2F90440B2F9011092F9033092F98C
:10164000062034D806EE901AD21AF8EEE66A07EEB3
:10165000902A37EE667AF8EEE77A641A67EE877AB0
:1016600007EE104AB8EEC77AB2EE046AC7EE876A90
:1016700026EE867AC7EE067AFCEEE77ABCEEC77AEB
:1016800017EE901A194417EE103A03B101312846AB
:10169000FFF7A4FF10B941F0004038BD184B2B44B0
:1016A000012B8CBF0E20062040F00040F5E71548C6
:1016B000854223D106EE904A9B1AF8EEE66A07EEC1
:1016C000903A37EE667AF8EEE77A091B67EE877A8A
:1016D00007EE101AB8EEC77AB2EE046AC7EE876A50
:1016E00026EE867AC7EE067AFCEEE77A17EE900AC7
:1016F00010440F28D8D94FF00040CEE70248CCE77D
:10170000FDFFFEA50500015A0E000080264B034494
:101710000D2B42D8DFE803F007253C42414141410F
:101720004141414141421378CB71B2F801300B8104
:10173000B2F809308B81B2F803304B81B2F80B302C
:10174000CB816FF02F030B7407234B746FF03B03B7
:101750000B7509234B756FF01B030B760C234B762F
:1017600070471378CB71B2F801300B81B2F80930B1
:101770008B81B2F803304B81B2F80B30CB816FF024
:101780007B030B7403234B7408230B750723E1E7DA
:101790001378CB71B2F801304B8170471378CB715D
:1017A000B2F80330F8E700BFFAFFFEA50E4B034482
:1017B000012B18D81378CB71B2F801300B819388C4
:1017C000A1F80B30D3788B7293796FF067024B736B
:1017D0006FF02F03CB7307230B7434238B74082310
:1017E0004A75CB748B757047E9FFFEA50A22F0B5E8
:1017F00041890689C589038A6D1A9B1B6B43534334
:101800008489A41B93FBF4F3B3FBF2FC02FB1C33AF
:1018100001EB0C07042B88BF0137838A47829B1B8F
:101820006B43534393FBF4F3B3FBF2FC02FB1C3317
:1018300001EB0C07042B88BF0137038BC7829B1B6E
:101840006B43534393FBF4F3B3FBF2F402FB143307
:101850002144042B88BF01314183F0BD10B50446FB
:10186000FFF7A6FA000C13281DD1254BD3F8F8205A
:101870002260D3F8FC206260D3F8F420A260D3F891
:10188000C420E260D3F8C0301E4A03F180532361C4
:10189000934201D1002010BD002323746374A3740C
:1018A000E3740120F7E7142813D1174BD3F8F8207D
:1018B0002260D3F8FC206260D3F8F420A260D3F851
:1018C000C420E260D3F8C030104A03F18053236192
:1018D000DEE71528E5D10E4BD3F8F8202260D3F8C7
:1018E000FC206260D3F8F420A260D3F8C420E26048
:1018F000D3F8C030074A03F180532361C8E700BF23
:1019000000FF071000F0071000FF0F1000F00F108D
:1019100000FF1F1000F01F1070B5C379013B012BB1
:1019200021D8114C457CD4F8903005F03F0565F383
:101930000503C67DC4F89030FFF738FD3E280BBF85
:10194000D4F89030D4F8903066F30D2365F30D236E
:101950000CBFC4F89030C4F89030D4F8903065F3E0
:101960001543C4F8903070BD0060005070B5C37965
:10197000013B012B21D8114C457CD4F8943005F063
:101980003F0565F30503C67DC4F89430FFF70EFDEF
:101990003E280BBFD4F89430D4F8943066F30D236E
:1019A00065F30D230CBFC4F89430C4F89430D4F818
:1019B000943065F31543C4F8943070BD0060005056
:1019C000C379013B012B0ED8074B427CD3F8B810EA
:1019D00062F30301C3F8B810D3F8B810013262F310
:1019E0001751C3F8B810704700600050C379013B2D
:1019F000012B07D8044B417CD3F8982061F31342A4
:101A0000C3F89820704700BF00600050837B022B12
:101A100010D0032B10D0012B0BD1437CC279013A9B
:101A2000012A9FBF054AD2F8981063F30D21C2F82E
:101A300098107047037DF1E7C37DEFE70060005029
:101A4000C279074B1A700289064B1A804289064BED
:101A50001A808289054B1A80C289054B1A8070470B
:101A6000202600301E2600301C2600301A260030AA
:101A700018260030C279074B1A700289064B1A806B
:101A80004289064B1A808289054B1A80C289054B10
:101A90001A807047162600301426003012260030B7
:101AA000102600300E260030C279054B1A70027ADB
:101AB000044B1A70B0F80920034B1A80704700BF1E
:101AC0000D2600300C2600300A260030C279034B68
:101AD0001A700289024B1A80704700BF0826003036
:101AE00006260030C279034B1A700289024B1A8015
:101AF000704700BF0426003002260030C279084B30
:101B00001A700289074B1A80827A074B1A70B0F854
:101B10000B20064B1A80427B054B1A70704700BFA2
:101B200000260030FE250030FC250030FA2500306C
:101B3000F9250030C279084B1A700289074B1A80C8
:101B4000827A074B1A70B0F80B20064B1A80427B42
:101B5000054B1A70704700BFF8250030F62500309D
:101B6000F4250030F2250030F1250030C279064B13
:101B70001A700289054B1A804289054B1A808289A6
:101B8000044B1A80704700BFF0250030EE2500306E
:101B9000EC250030EA2500307D2870B5054605D0DB
:101BA000A0F13D03012B01D9012070BDFFF708F919
:101BB000142805D0FFF704F915280DD00520F4E707
:101BC000104B114E344622789542EDD0FF2A06D0B4
:101BD00001349C42F7D3F1E70C4B0D4EF2E7A342E0
:101BE0000ED329462046FFF7AFFAB44203D00021B6
:101BF000601EFFF7A9FA2846FFF7FAFB0020D4E79A
:101C00000220D2E7DFFF0F10D8FF0F10DFFF1F10F9
:101C1000D8FF1F10C379013B012B05D8034B018965
:101C20005A6A61F305025A62704700BF00600050B3
:101C300002680346013204D0B0F8050010B1184420
:101C400070470020704708B518B10368013301D10F
:101C5000002008BD03797E2BFBD0FFF7E9FFF3E7F7
:101C600008B528B1FFF7E4FFBDE80840FFF7EBBF78
:101C700008BD2DE9F0410546FFF7E5FF044605F1F3
:101C8000DD0605F1600705F148080CB9BDE8F081F3
:101C9000236803F12643A3F101130A2B0AD8DFE8D6
:101CA00003F0060E13181C0909090909200028462B
:101CB000FFF732FE2046FFF7D3FF0446E5E705F1C4
:101CC0001800FFF753FEF5E705F13000FFF778FE47
:101CD000F0E74046FFF78AFEECE73846FFF796FE4E
:101CE000E8E73046FFF796FFE4E700002DE9F0470C
:101CF000D8B01422002106A802F072FF06A8FFF750
:101D0000ADFDD04CDDF828804FF48052414620468E
:101D100002F08AFE18A8FFF787F90646002840F06F
:101D20005B83DDE920010090C0B2ADF804100DF135
:101D30000607090C0128397040F025830223E3715E
:101D4000BDF801306A462381BDF804303546A4F859
:101D50000B309DF80330A372CBB26373A073E37BA7
:101D60006FF01D03E373237C0423B749B748237442
:101D7000FFF756FCC0B26074A37C4623A374E37CD7
:101D800005236A46B249B148E374FFF749FCC0B283
:101D90002075637D40236375A37D06236A46AD49A4
:101DA000AA48A375FFF73CFCC0B2E075DDE9240149
:101DB0000090C0B2ADF8041001284FEA114139700B
:101DC00040F0E6820223E377BDF801306A462384BF
:101DD000BDF804309C49A4F823309DF8033084F802
:101DE00022309DF8063084F8253084F8260094F8D7
:101DF00027306FF01D0384F8273094F8283004232F
:101E000000F1B44000F1011084F82830FFF708FC1D
:101E1000C0B284F8290094F82A30462384F82A3086
:101E200094F82B3005236A4689498B4884F82B3077
:101E3000FFF7F6FBC0B284F82C0094F82D30402355
:101E400084F82D3094F82E3006236A468149824862
:101E500084F82E30FFF7E4FBC0B284F82F00DDE9F0
:101E600028010090C0B2ADF8041001284FEA1141DA
:101E7000397040F09082022384F83730BDF8013089
:101E80006A462387BDF804307449A4F83B309DF8B6
:101E9000033084F83A309DF8063084F83D3084F8F9
:101EA0003E0094F83F304C2384F83F3094F84030A3
:101EB00004236B4884F84030FFF7B2FBC0B284F8CB
:101EC0004100DDE92C010090C0B2ADF804100128FA
:101ED0004FEA1141397040F06182022384F84F309B
:101EE000BDF801306A46A4F85030BDF804305B49B3
:101EF000A4F853309DF8033084F852309DF8063032
:101F000084F8553084F8560094F857304C2384F800
:101F1000573094F858300423524884F85830FFF76B
:101F20007FFBC0B284F85900DDE930010090C0B2F7
:101F3000ADF8041001284FEA1141397040F03182A8
:101F40000223BDF8012084F86730A4F86820BDF8AA
:101F500004204549A4F86B209DF8032084F86A20EA
:101F60009DF8062084F86D2084F86E0094F86F20A8
:101F70006FF0430284F86F2094F8702084F870307A
:101F800094F87220202284F8722094F8732003229F
:101F900084F8732094F875206FF0570284F8752048
:101FA00094F8762031486A4684F87630FFF738FB9B
:101FB000C0B26A462E4984F871002C48FFF730FB06
:101FC000C0B284F874006A462A492848FFF728FB03
:101FD000C0B284F877000DF1080C34AB0FCBACE83D
:101FE00007008CF800309DF80830012B40F0DC81B0
:101FF00011A9214802AAFFF789FB0846FFF7F6FB63
:10200000022384F87F304389A4F88230C389A4F87E
:1020100086300389A4F880308389A4F88430438A09
:10202000A4F88A30C38AA4F88E30438BA4F8923087
:10203000038AA4F88830838AA4F88C30038BA4F830
:1020400090301BE0E815003000409C440100015A2C
:1020500000C0A8440000C8440200015A008089441E
:102060000300015A0400015A00002F440500015AE0
:102070000000484400002A440600015A0DF1080CF3
:1020800038AB0FCBACE807008CF800309DF8083077
:10209000012B40F08C8111A9D04802AAFFF736FB32
:1020A0000846FFF7A3FB022384F89B304389A4F87A
:1020B0009E30C389A4F8A2300389A4F89C30838998
:1020C000A4F8A030438AA4F8A630C38AA4F8AA30A2
:1020D000438BA4F8AE30038AA4F8A430838AA4F812
:1020E000A830038BA4F8AC300DF1080C3CAB0FCB3F
:1020F000ACE807009DF80830012B40F05B8184F8C4
:10210000B7308DF84B300023BDF80920A4F8B92072
:10211000ADF84E2084F8B8300DF1080C40AB0FCB71
:10212000ACE807009DF80830012B40F0468184F8A8
:10213000C230BDF80930A4F8C3300DF1080C44AB2F
:102140000FCBACE807008CF800309DF80830012B6D
:1021500040F0368184F86D31BDF80930A4F86E3155
:10216000DDE948010090C0B2ADF8041001284FEA43
:102170001141397040F027810BA96A469848FFF752
:1021800015FB022384F8A7310B899648A4F8A831DF
:10219000B1F80B30A4F8AB318B7A84F8AA314B7BC1
:1021A00084F8AD31B1F80F30A4F8AF314B8AA4F800
:1021B000B231B1F815306946A4F8B531FFF7DCF952
:1021C000C0B284F8B1018848FFF7D6F9C0B284F8EC
:1021D000B4018648FFF7D0F9C0B284F8B701DDE951
:1021E0004C010090C0B2ADF8041001284FEA114133
:1021F000397040F0EB804FF0020A8DF833006FF039
:102200002F00072140F63403794CBDF804E09DF817
:1022100003C09DF80670BDF8019084F8BFA1A4F832
:10222000C091A4F8C3E184F8C2C184F8C5718DF8E7
:10223000397094F8C77184F8C7018DF83B0094F8A1
:10224000C80184F8C8118DF83C1094F8CA113421E3
:10225000ADF83E3008236FF0670284F8CA1194F895
:10226000CB1184F8CB3194F8CD115E48694684F8DF
:10227000CD21ADF837E08DF836C08DF842308DF8BD
:102280004120ADF8349094F8CE2184F8CE31FFF798
:1022900073F9C0B284F8C9015348FFF76DF9C0B2B1
:1022A00084F8CC015148FFF767F9C0B284F8CF0138
:1022B0009DF840314E4C012B0ED102209DF8421169
:1022C0009DF841219DF8433184F8D701A4F8DA1133
:1022D000A4F8D821A4F8DC319DF85031012B78D135
:1022E00084F8173284F8183294F81932202384F8CD
:1022F000193294F81A3200239DF851719DF8520159
:102300009DF853119DF8542184F81A3284F82B72E9
:1023100084F82C0284F82D1284F82E2208F17043E0
:10232000C4F8C03F099BC4F8C43F94F8F43F0123AC
:1023300084F8F43F94F8F53F002384F8F53F94F8CF
:10234000F63F3C2384F8F63F94F8F73F5A2384F88D
:10235000F73F069BC4F8F83F079BC4F8FC3FFEF725
:1023600091FE08EB0601A01906F58076FEF7B6FE91
:10237000B6F5805FF5D1FFF719F8FFF70DFC284699
:1023800058B0BDE8F0878CBF01250025AD000DE5F4
:1023900088BF042563E588BF042592E588BF04252E
:1023A000C2E588BF042516E688BF042566E688BF17
:1023B000042599E688BF0425AEE688BF0425BCE65F
:1023C00088BF0425CCE688BF042508E788BF04251C
:1023D0006EE788BF0425A1E70125D0E70700015A71
:1023E0001700015A0000FA440040034500800945E7
:1023F000E8150030F0B5A1B0FEF7D8FF304C074625
:102400002046FEF711FE0646002840F0FE81206AB5
:10241000A28C94F826300090C0B20128ADF80420B8
:102420008DF8063026D16A4626492748FFF7F8F886
:10243000264D00F03F00D5F890303E2F60F30503A5
:10244000C5F8903004D16A4621491F48FFF7E8F8E3
:10245000D5F890306A4660F30D23C5F890301949DD
:102460001948FFF7DDF8194BD3F8902060F31542B7
:10247000C3F89020174B206B9A8800909B79C0B2CC
:102480000128ADF804208DF806303ED100F1B440AB
:102490006A460C4900F10110FFF7C2F80B4D00F03D
:1024A0003F00D5F894303E2F60F30503C5F8943013
:1024B00014D16A4606490848FFF7B2F813E000BF96
:1024C000E814003000409C440100015A00600050B4
:1024D0000000C844181500300200015A07F0BF0779
:1024E0003D2F40F08E81D5F894306A4660F30D237D
:1024F000C5F89430C649C748FFF792F8C64BD3F8E1
:10250000942060F31542C3F89420C44B206C9A8841
:1025100000909B79C0B20128ADF804208DF80630F8
:1025200012D16A46BE49BF48FFF77AF8BA4BD3F8D2
:10253000B82060F30302C3F8B820D3F8B820013004
:1025400060F31752C3F8B820B74B206D9A880090FB
:102550009B79C0B20128ADF804208DF806300BD16C
:102560006A46AF49B148FFF75BF8AB4BD3F8982008
:1025700060F31342C3F89820AD4B206E9A88009008
:102580009B79C0B20128ADF804208DF806300BD13C
:102590006A46A849A848FFF743F89F4BD3F898200C
:1025A00060F30D22C3F898200BAA1546A34B03F144
:1025B000080C174618685968083303C763453A463C
:1025C000F7D1186838601B793B719DF82C30012BCE
:1025D00009D12A469A4819A9FFF798F80846FFF743
:1025E00005F9FFF72DFA2A46964B03F1080C17461A
:1025F00018685968083303C763453A46F7D1186825
:1026000038601B793B719DF82C30012B09D12A468B
:102610008D4819A9FFF77AF80846FFF7E7F8FFF7A2
:1026200029FA2A46894B03F1080C1746186859689D
:10263000083303C763453A46F7D1186838601B79F9
:102640003B719DF82C30012B0FD10021BDF82D20BE
:1026500008A88DF86B30ADF86E208DF828108DF835
:102660002730ADF82920FFF71FFA2A46784B03F1EF
:10267000080C174618685968083303C763453A467B
:10268000F7D1186838601B793B719DF82C30012B0D
:1026900009D18DF80F300B9B02A8C3F30F23ADF8BF
:1026A0001030FFF713FA6B4B03F108072A4618683E
:1026B0005968083303C2BB421546F7D11868106049
:1026C0001B7913719DF82C30012B09D18DF81B302B
:1026D0000B9B05A8C3F30F23ADF81C30FFF702FADC
:1026E0005D4BD4F8C0009A8800909B79C0B2012855
:1026F000ADF804208DF8063028D16A46574813A952
:10270000FFF754F869465648FEF736FF6FF04F035F
:102710008DF85B3004238DF85D0041488DF85C3006
:10272000FEF72AFF40F24C438DF860004D48ADF8AB
:102730005E30FEF721FF14238DF8613005238DF8FC
:10274000630013A88DF86230FFF7D8F9464BD4F830
:10275000D0009A889B7900908DF80630C3B2012B87
:10276000ADF8042035D18DF85330BDF80430C0F3F6
:102770000F20ADF857309DF8033069468DF856307C
:102780009DF80630ADF8540035488DF85930FEF705
:10279000F3FE6FF04F038DF85B3004238DF85D007E
:1027A0001F488DF85C30FEF7E7FE40F24C438DF891
:1027B00060002C48ADF85E30FEF7DEFE14238DF885
:1027C000613005238DF8630013A88DF86230FFF7A0
:1027D000B1F994F8E030012B10D194F8E20094F8AC
:1027E000E11094F8E320ADF846000FA88DF84330CF
:1027F000ADF84410ADF84820FFF7B8F9304621B0E5
:10280000F0BD6A460249194856E60126F6E700BFC0
:1028100000409C440200015A00600050281500301E
:10282000008089440300015A381500300400015A21
:102830004815003000002F440500015A581500309B
:102840000600015A681500300700015A781500305B
:102850008815003098150030A81500301700015A6F
:10286000000096440080A244B81500300100015ACF
:1028700030B5002487B01F4D1422214601A82C70CA
:1028800002F0AEF901A8FEF7E9FF019A1A49130C0C
:102890001B048B422CD1049BB3F5805F28D80131F7
:1028A0008A42039B05D0154A934212D101232B7013
:1028B00007E0591C02D0114A934208D10123002499
:1028C0002B700598FFF7D5F9204607B030BD9A1C4C
:1028D00002D00B4A934204D1FFF708FA02230446C0
:1028E000E5E703232B7007B0BDE83040FFF782BD5A
:1028F0000224E9E7E82500300000575801003C5A5F
:1029000002003C5A2DE9F04FD0E908534FF0FF3454
:1029100090F802E0D0F8289004FA0EF4D0F840C005
:1029200029EA04044FEA041E0CEB0414C66804F1FF
:102930000044A4F58074B5F1807F176836F814A0C0
:102940004FEA440807D28F4240F2EA8111F8014B66
:102950002D0244EA0323EC0A0AFB04F4A34280F0AC
:102960008480C56A06F5207659EA05051CD04FF02B
:10297000FF3590F8018090F800E005FA08F529EAA3
:1029800005098569D0F8108009FA0EF905B945697D
:10299000013D18F80550CEF1080E25FA0EF54FF45A
:1029A000C06E4D440EFB0566BCF1060F24D8012015
:1029B0004000B4F1807F36F800C007D2B94280F001
:1029C000AF8111F8015B240245EA0323E50A0CFB01
:1029D00005F5AB4229BF01302C46641B5B1BFF2869
:1029E000E6D90120B4F1807F03D2B94280F098810A
:1029F00001311160BDE8F08FD0F830C0D0F818E098
:102A00000569E645AEEB0C082CBF4FF0000CD0F882
:102A100014C005EB080010F80CE001254FF4807C91
:102A20004FEA4E0E0CEA0E080CEB05004044B4F1E0
:102A3000807F36F8109007D2B94280F0718111F88A
:102A4000010B240240EA0323E00A09FB00F06D00B9
:102A500083422BBF01350446C4468CEA080C24BFD0
:102A6000241A1B1AFF2DDBD9BBE7281B0CF1100C15
:102A7000B0F1807FA3EB04034FEA4C0436F81CC08E
:102A800007D2B94280F04C8111F8015B000245EA9F
:102A90000323C50A0CFB05F5AB4280F0A980022098
:102AA0004FF00009A6F5C06CB5F1807FBCF800803E
:102AB00007D2B94280F0348111F8014B2D0244EA6B
:102AC0000323EC0A08FB04F4A34280F0EC80002509
:102AD0000CEB4E0E4FF0080A4FF001084FEA480881
:102AE000B4F1807F3EF808B007D2B94280F0188177
:102AF00011F801CB24024CEA03234FEAD42C0BFB40
:102B00000CFC634529BF08F101086446A4EB0C04E2
:102B1000A3EB0C03D045E1D3B9F1030F3FF662AF4D
:102B2000A5EB0A054544022D88BF4FF400754FF010
:102B3000010E9CBF0135ED014FEA4E0E06EB0E0C67
:102B4000B4F1807F3CF8058007D2B94280F0E8807C
:102B500011F801CB24024CEA03234FEAD42C08FBE2
:102B60000CFC634529BF0EF1010E6446A4EB0C0476
:102B7000A3EB0C03BEF13F0FDED9AEF14005032DF0
:102B80007FF630AF0D2D4FEA550C00F2AE8005F008
:102B900001050CF1FF3C45F0020505FA0CF505F1C5
:102BA0000045A5F5D06506EB45064FF00108C64681
:102BB000B4F1807F36F81E9007D2B94280F0B08021
:102BC00011F8015B240245EA0323E50A09FB05F538
:102BD0004FEA4809AB4239BF2C46C644641B5B1B15
:102BE00028BFCE44BCF1010C3FF4FCAEC846DFE781
:102BF000401B3444B0F1807FB4F818C0A3EB050348
:102C000007D2B94280F08C8011F8015B000245EADE
:102C10000323C50A0CFB05F5AB421AD2B044A8F554
:102C20002068B5F1807FB8F8000006D2B94277D2AB
:102C300011F8014B2D0244EA0323EC0A4443A3425A
:102C40006CD32D1B1B1B03204FF00C09A6F5206C29
:102C50002AE7401BB0F1807FB4F830C0A3EB050336
:102C600006D2B9425CD211F8015B000245EA0323A7
:102C7000C50A0CFB05F5AB42E5D3401BB0F1807FE4
:102C8000B4F84840A3EB050306D2B94248D211F884
:102C9000015B000245EA0323C50A6543AB4224BF3A
:102CA0005B1B451BCFE72D1BB5F1807FBCF8108067
:102CB000A3EB040306D2B94232D211F8014B2D0224
:102CC00044EA0323EC0A08FB04F4A34205D20EF104
:102CD000080E08250CEB4E0EFCE61B1B4FF4807A09
:102CE0002C1B0CF5007E1025F6E6ACF1050CB4F1BA
:102CF000807F06D2B94213D211F8015B240245EA63
:102D0000032364081D1BED0F013D2540BCF1010CA0
:102D1000A3EB0503EBD14FF0040C46E7032061E67B
:102D2000002067E62DE9F04FC36A93B00993836AE8
:102D300005460293099B86690A910E923BB9029A55
:102D400043689B1A8A1B9A4284BF9B190A934FF0CF
:102D5000FF34AF78EB68BC40E04300932B6B0D90E1
:102D600001936B6B00200393AB6B6A780493EB6B5E
:102D7000069008932B7800980B934FF480730B996F
:102D800003FA02F2CB40D31A0C932B69A0F5206012
:102D900005930F906B6900980793A0F5C0601090A1
:102DA0000798D5F840B001386A6A1190D5E9073123
:102DB000029C0D98B1F1807F00EA040C4FEA0C17D9
:102DC0000BEB0C1C00980CF1004C38BF13F8014BB6
:102DD000ACF5807C38BF090230F81C8038BF44EA6B
:102DE0000222CC0A08FB04F494424FEA4C0E40F253
:102DF000CA820098C8F5006108EB511120F81C1038
:102E0000029F00F520710998074310D002984FEAFD
:102E1000002C002E40F04481119F0598C75D0C984E
:102E2000674407400B988740062000FB0711029F6C
:102E3000BBF1060F07F10107029700F23B81BBF1DE
:102E4000030F94BFABEB0B0BABF1030BB4F1807F23
:102E50003CBF13F8017B2402B1F802C038BF47EA37
:102E60000222E70A0CFB07F7974240F21B81CCF5E0
:102E700000640CEB54141FFA84FC0224A1F802C075
:102E8000B7F1807F31F814904FEA440C01EB44080D
:102E90003EBF13F8014B3F0244EA0222FC0A09FB41
:102EA00004F4944287BFC9F5006E09EB5E1EA9EBDE
:102EB000591E121B8EBF1FFA8EFE3C1B1FFA8EFE80
:102EC000A8F800E098BF0CF1010CB4F1807F38BF86
:102ED00013F8017B31F81C903CBF240247EA022220
:102EE000E70A09FB07F797424FEA4C0E01EB4C0843
:102EF00087BFC9F5006C09EB5C1CA9EB591CD21B00
:102F00008EBF1FFA8CFCE71B1FFA8CFCA8F800C0D0
:102F100098BF0EF1010EB7F1807F38BF13F8014B57
:102F200031F81E903CBF3F0244EA0222FC0A09FB32
:102F300004F494424FEA4E0C01EB4E0887BFC9F5EA
:102F4000006E09EB5E1EA9EB591E121B8EBF1FFA05
:102F50008EFE3C1B1FFA8EFEA8F800E098BF0CF115
:102F6000010CB4F1807F38BF13F8017B31F81C905D
:102F70003CBF240247EA0222E70A09FB07F797420F
:102F80004FEA4C0E01EB4C0887BFC9F5006C09EB0A
:102F90005C1CA9EB591CD21B8EBF1FFA8CFCE71BD3
:102FA0001FFA8CFCA8F800C098BF0EF1010EB7F113
:102FB000807F38BF13F8014B31F81E903CBF3F02B1
:102FC00044EA0222FC0A09FB04F494424FEA4E0C44
:102FD00001EB4E0887BFC9F5006E09EB5E1EA9EB39
:102FE000591E121B8FBF1FFA8EFE3C1B1FFA8EFE4E
:102FF0000CF1010CA8F800E0B4F1807F38BF13F8A1
:10300000017B31F81C903CBF240247EA0222E70A08
:1030100009FB07F797424FEA4C0E01EB4C0887BFBC
:10302000C9F5006C09EB5C1CA9EB591CD21B8FBFC6
:103030001FFA8CFCE71B1FFA8CFC0EF1010EA8F89E
:1030400000C0B7F1807F01EB4E0C4FEA4E0431F81F
:103050001EE03EBF13F8011B3F0241EA0222F90ABB
:103060000EFB01F1914288BFCEF5006705988DBF38
:103070000EEB5717AEEB5E1E0134ACF800709EBF2E
:10308000521AACF800E0791A845501360A98B04219
:1030900040F2D7850E9898423FF68AAE00F0D1BD37
:1030A000771EBAE6ACEB5C1CD21B1FFA8CFCE71B4C
:1030B0000324E3E60198019FA6EB000E0798BE42A9
:1030C00028BF002077468446BBF10A0F34BF4FF07B
:1030D000030E4FF0060E0598B4F1807F074417F8F1
:1030E0000C90ABEB0E0B4FEA490808F4807808F21D
:1030F000011731F817C001EB470E3EBF13F8017BF3
:10310000240247EA0222E70A0CFB07F7974240F243
:10311000F980CCF500640CEB54141FFA84FC0224F3
:1031200088F48078AEF800C008EA890A08EB040C3D
:10313000D444B7F1807F31F81CE001EB4C003EBF76
:1031400013F801CB3F024CEA02224FEAD72C0EFBC8
:103150000CFC94454FEA440440F2DC80CEF5006755
:103160000EEB57171FFA87FE8AEA080A0AEB0407D4
:103170000AEAC9084744BCF1807FA0F800E031F8B2
:1031800017E001EB47003EBF13F8017B4FEA0C2C20
:1031900047EA02224FEADC270EFB07F797424FEA85
:1031A000440440F2C180CEF5006C0EEB5C1C1FFAAB
:1031B0008CFE88EA0A0808EB040C08EA091AD444D1
:1031C000B7F1807FA0F800E031F81CE001EB4C0083
:1031D0003EBF13F801CB3F024CEA02224FEAD72C44
:1031E0000EFB0CFC94454FEA440440F2A680CEF559
:1031F00000670EEB57171FFA87FE8AEA080A0AEBE8
:1032000004070AEA49184744BCF1807FA0F800E0AF
:1032100031F817E001EB47003EBF13F8017B4FEA9E
:103220000C2C47EA02224FEADC270EFB07F79742F5
:103230004FEA440440F28B80CEF5006C0EEB5C1C30
:103240001FFA8CFE88EA0A0808EB040C08EA891ABF
:10325000D444B7F1807FA0F800E031F81CE001EB26
:103260004C003EBF13F801CB3F024CEA02224FEA6A
:10327000D72C0EFB0CFC94454FEA440470D9CEF5D4
:1032800000670EEB57171FFA87FE8AEA080AA0F8B4
:1032900000E00AEB04070AEAC91E7744BCF1807F0C
:1032A00031F8178001EB47003EBF13F8017B4FEA6E
:1032B0000C2C47EA02224FEADC2708FB07F797426B
:1032C0004FEA440456D9C8F5006C08EB5C1C1FFAA1
:1032D0008CF88EEA0A0E0EEA0929A644B7F1807F1F
:1032E000A0F80080CE4401EB4E0C31F81EE03EBF4A
:1032F00013F8011B3F0241EA0222F90A0EFB01F119
:103300006400AFE6ACEB5C1CD21B1FFA8CFCE71B25
:10331000032407E7AEEB5E1EA2EB0C021FFA8EFE43
:103320000134A7EB0C0C21E7AEEB5E1ED21B1FFA9B
:103330008EFE0134ACEB07073DE7AEEB5E1EA2EB61
:103340000C021FFA8EFE0134A7EB0C0C57E7AEEB14
:103350005E1ED21B1FFA8EFE0134ACEB070773E72B
:10336000AEEB5E1EA2EB0C021FFA8EFE0134A7EB41
:103370000C0C8CE7A8EB5818D21B1FFA88F8013404
:10338000ACEB0707A7E70098091BA8EB5818B1F1A9
:10339000807F20F81C80A2EB04020BF110093CBFD7
:1033A00013F8014B090230F8198038BF44EA0222B1
:1033B000CC0A08FB04F494424FEA490C40F2BA806C
:1033C0000098C8F5006108EB5111DDF840E020F8E5
:1033D00019100BF10C0BB4F1807F3CBF13F801CB3B
:1033E0002402BEF8001038BF4CEA02224FEAD42C67
:1033F00001FB0CFC944540F26681C1F5006401EBD1
:103400005414BCF1807FAEF8004038BF13F8011BA4
:103410000EEB470E38BF4FEA0C2CBEF8027038BFD7
:1034200041EA02224FEADC217943914240F2438192
:10343000C7F5006407EB5414A7B20224AEF802707B
:10344000B1F1807F4FEA440C3EF814900EEB440833
:103450003EBF13F8014B090244EA0222CC0A09FBE1
:1034600004F4944287BFC9F5006709EB5717A9EB2D
:103470005917121B8FBFBFB20C1BBFB20CF1010C4E
:10348000A8F80070B4F1807F38BF13F8011B0EEB71
:103490004C0838BF24023EF81CE038BF41EA022243
:1034A000E10A0EFB01F191424FEA4C0785BFCEF5D0
:1034B000006C0EEB5C1CAEEB5E1C1FFA8CFC9FBF1D
:1034C0001FFA8CFC521A0137611ABBF10B0FA8F8D6
:1034D00000C0A7F1080C00F2C2810CF102000690B6
:1034E0000A98B0EB060C00F0AC830698079F844561
:1034F00028BF84460198864228BF0027341A0298C4
:103500003C44604402900698A0EB0C00069007989B
:10351000071B0598BC4500EB060700F2E383A41BDC
:10352000664400EB060C17F804E007F801EBBC4515
:10353000F9D1ABE50098091BA8EB5818B1F1807FD1
:1035400020F81980A2EB04020CF118093CBF13F813
:10355000014B090230F8098038BF44EA0222CC0A44
:1035600008FB04F4944251D90098C8F5006108EBB7
:10357000511120F809100146B4F1807F38BF13F8CB
:10358000011BAEF5206E38BF240230F80EC038BFE4
:1035900041EA0222E10A0CFB01F191421DD9009897
:1035A000CCF500640CEB541420F80E40079F0198F2
:1035B000864228BF0027341A0598BBF1060F044441
:1035C000E45D88BF4FF00B0B8455029898BF4FF015
:1035D000090B01300136029058E5641A521A00991D
:1035E000ACEB5C1C019821F80EC00399039001918B
:1035F00001990398BBF1060F8CBF4FF00B0B4FF0F6
:10360000080BDDF83CE001900391E4E60098091B0B
:10361000A8EB5818B1F1807F20F80980A2EB0402D2
:103620000CF130083CBF13F8014B090230F808E0F8
:1036300038BF44EA0222CC0A0EFB04F4944207D9B4
:103640000098CEF500610EEB511120F80810CFE77D
:103650000098091BAEEB5E1EB1F1807F20F808E0F8
:10366000A2EB04020CF1480C3CBF13F8014B090219
:1036700030F80CE038BF44EA0222CC0A0EFB04F416
:1036800094420BD90098CEF500610EEB511120F851
:103690000C10DDE9031003900491A9E70098AEEB4C
:1036A0005E1E20F80CE00898121B0C1B0399039077
:1036B00004980890F0E7A7EB5717521A0324BFB2FB
:1036C000ACEB0101BAE6A4EB0C04B4F1807F38BF87
:1036D0002402BEF81080A2EB0C02A1EB51114FEABC
:1036E000D42C08FB0CFCAEF800103CBF13F8011BF7
:1036F00041EA022294457CD9C8F5006108EB5111DA
:10370000BCF1807FAEF8101007F1080738BF13F83E
:10371000011B0EEB470738BF4FEA0C2CB7F802E04D
:1037200038BF41EA02224FEADC210EFB01F191424F
:103730004CD9CEF500640EEB54141FFA84FE02241B
:10374000A7F802E0B1F1807F37F814904FEA440EF9
:1037500007EB44083EBF13F8014B090244EA02227A
:10376000CC0A09FB04F4944287BFC9F5006C09EB4D
:103770005C1CA9EB591C121B8FBF1FFA8CFC0C1B85
:103780001FFA8CFC0EF1010EA8F800C0B4F1807F86
:103790003CBF13F8011B240207EB4E0837F81E70DC
:1037A00038BF41EA0222E10A794391424FEA4E0CC6
:1037B00015D9C7F5006407EB5414A8F80040BBF115
:1037C0000B0F7FF68AAE4FF400774DE0AEEB5E1E36
:1037D000521A03241FFA8EFEACEB0101B0E7641A03
:1037E000A7EB5717521AA8F8007021460CF1010CEC
:1037F000E5E7A4EB0C01A2EB0C024FF0010CA8EBE7
:103800005818AEF81080B1F1807F4FEA4C0C38BFE9
:1038100013F8017B0CF5007438BF09020EEB0408A5
:103820003EF8044038BF47EA0222CF0A6743974276
:103830000DD9C4F5006104EB51118CB23946BCF1CD
:10384000FF0FA8F80040DED9ACF1F00CB7E7A4EB0D
:103850005414C91BD21BA4B20CF1010CEFE7BCF14C
:10386000030FB0D8073FFF010098B1F1807F38BF48
:1038700013F8014B074438BF0902B7F802E038BF1C
:1038800044EA0222CC0A0EFB04F4944240F2218165
:10389000CEF500610EEB51111FFA81FE0221A7F84F
:1038A00002E0B4F1807F37F811A04FEA410E07EB38
:1038B00041093EBF13F8011B240241EA0222E10A3A
:1038C0000AFB01F1914287BFCAF500680AEB58185C
:1038D000AAEB5A18521A8EBF1FFA88F8611A1FFAFB
:1038E00088F8A9F8008098BF0EF1010EB1F1807F31
:1038F00038BF13F8014B37F81EA03CBF090244EA59
:103900000222CC0A0AFB04F494424FEA4E0807EB69
:103910004E0987BFCAF5006E0AEB5E1EAAEB5A1E5F
:10392000121B8EBF1FFA8EFE0C1B1FFA8EFEA9F80B
:1039300000E098BF08F10108B4F1807F38BF13F8A8
:10394000011B37F818A03CBF240241EA0222E10A19
:103950000AFB01F1914207EB48094FEA480E87BF85
:10396000CAF500680AEB5818AAEB5A18521A8EBF0B
:103970001FFA88F8611A1FFA88F8A9F8008098BF22
:103980000EF1010EB1F1807F37F81EA038BF090299
:1039900007EB4E094FEA4E084FEAD12E0AFB0EFE06
:1039A0003CBF13F8014B44EA0222964587BFCAF593
:1039B00000640AEB5414AAEB5A14A2EB0E028EBF59
:1039C000A4B2A1EB0E0EA4B2A9F8004098BF08F172
:1039D0000108BEF1807F38BF13F8011B07EB4809CF
:1039E0004FEA480438BF4FEA0E2E37F8188038BF28
:1039F00041EA02224FEADE2108FB01F191428BBF2E
:103A0000C8F50067013408EB5717A8EB5817A4F165
:103A100040088FBFBFB2521ABFB2AEEB0101B8F17E
:103A2000030FA9F8007036D908F00107B8F10D0F9F
:103A30004FEA580E47F002075FD801200EF1FF3E13
:103A400007FA0EF70137009C4FEA470AB1F1807F71
:103A5000AAF5506A34F80A8038BF09024FEAD12922
:103A600008FB09F93CBF13F8014B44EA02229145D7
:103A70004FEA400437D9C8F5006108EB51111FFA2D
:103A800081F8494607440098BEF1010E20F80A80EB
:103A900027D1A7EB04080998029FBBF1130F34BF8D
:103AA0004FF0070B4FF00A0B002808BF384680453F
:103AB000864608F10109C0F00B810CF20220069045
:103AC00004980890039804900198CDF8049003900E
:103AD000B7E0AEEB5E1E121B1FFA8EFE0C1B03211D
:103AE000DDE62046AFE7A8EB5818A1EB0901A2EBF1
:103AF00009021FFA88F82744C5E7AEF1050EB1F1B7
:103B0000807F3EBF13F8014B090244EA02224908B4
:103B1000521AD41704F10108BEF1010E04EA01049F
:103B200008EB47072244EAD10098B1F1807F38BF03
:103B30000902B0F802804FEAD12E08FB0EFE38BF12
:103B400013F8014B4FEA071738BF44EA02229645A3
:103B500040F2A1800224C8F5006108EB51111FFA60
:103B600081F80099BEF1807FA1F8028031F81480BD
:103B70003EBF13F8011B4FEA0E2E41EA02224FEA24
:103B8000DE2108FB01F191424FEA440940F28D80A9
:103B9000C8F5006E08EB5E1E1FFA8EF8023400981E
:103BA000B1F1807F20F809803CBF13F801EB0902D6
:103BB00030F8148038BF4EEA02224FEAD12E08FBBB
:103BC0000EFE96454FEA440978D9C8F5006108EB26
:103BD00051111FFA81F804340099BEF1807F21F859
:103BE000098031F814A03EBF13F8011B4FEA0E2ED6
:103BF00041EA02224FEADE210AFB01F1914286BF2F
:103C0000CAF500680AEB5818AAEB5A1800988CBF3E
:103C10001FFA88F81FFA88F84FEA440988BF083C61
:103C200020F8098044EA07089CBF521AAEEB010154
:103C3000B8F1FF3F7FF42FAF4FF48970ABF10C0B5D
:103C40000690B1F1807F3CBF13F8010B0902C5E972
:103C50000731069B38BF40EA02226B64029B6A620E
:103C6000AB62019BAE612B63039B6B63049BAB63F5
:103C7000089BC5E90F3B069BB3F5007FEB6A34BF99
:103C80000020012023B96B68029A9A4228BFEB6298
:103C900013B0BDE8F08FA8EB5818A2EB0E02032476
:103CA0001FFA88F8A1EB0E0E5BE7A8EB5818521A22
:103CB0001FFA88F80434AEEB010170E7A8EB58183E
:103CC000A2EB0E021FFA88F80834A1EB0E0E83E770
:103CD00004980890039804900198CDF804900390FC
:103CE000FFF7FBBB0CEB070E059810F80480079854
:103CF00007F8018B0134A04208BF0024BE45F3D170
:103D00006644FFF7C3B90023C0E90A338361C36483
:103D10004FF48A73436470472DE9F04F87B01E4615
:103D20009DF84030154601930023119A376833609F
:103D30001370436C0446B3F5897F8B464BD9B3F5BA
:103D40008A7F15D940F2FF12934200F023814FF091
:103D50000108404607B0BDE8F08F5A1CE26415F830
:103D6000012B234483F850203368013F0133336033
:103D7000E36C002F3CD0042BEFD994F85030002B8B
:103D8000E5D1D4F85130E26A1BBA636222B9A26A63
:103D900012B9AD4A9342DAD84FF0FF3323620023C1
:103DA000626CE364B2F58A7F13D3627821784FF4B2
:103DB000806011444FF440728A40A16802F5F862B5
:103DC00093421ED30123C4E90E33C4E90C3300230C
:103DD000236400236364606CB0F5897F1AD1636A41
:103DE000002BB4D10123119A4FF000081370B0E7F3
:103DF0002BB194F85020002AA9D1042BC1D8032359
:103E0000F1E721F813000133DAE77F1B0D46E2E703
:103E10000423E8E7A36978B3ABEB0302904207D928
:103E20003AB9019B002B32D00223119A13708EE70E
:103E30000246D4E90AC129B96168A1EB0C0E964586
:103E400098BFE162801A0CEB02016064D4F830C0C4
:103E50002069D4F814E0A1621A449C458CBFF04656
:103E60004FF00008A3EB0C01014411F80810C154F5
:103E700001339342F1D1A361A3695B4534D3636CF1
:103E8000002BCED1636A002BC2D0019B0BB9022359
:103E9000A9E7D4F84C904FF00108B9F1000F2BD0EE
:103EA000CA46002304F14F02BAF1130F00F28E80CC
:103EB0009F4240F0848004F1500101EB0A02059218
:103EC000204605AA03930291FEF71CFDDDE90213CB
:103ED000002840F0A480BAF1130F58D8C4F84CA0C1
:103EE00032681A4432601BE0D4F84C90B9F1000FEC
:103EF0001CD1132F51D8C84605EB07092946204687
:103F000005AACDF81490FEF7FDFCB8B9132F3ED8E2
:103F100033684F343B44336044F8037C4D4508D14B
:103F200003234FF00008119A137012E74FF00008B6
:103F3000B6E715F8013B04F8013FEFE7059BA3EB5B
:103F40000509B9F1140F22D8B8F1000F11D00228D9
:103F50000FD033684F344B44336044F8039CA9447A
:103F60004D4501D10223DEE715F8013B04F8013F7E
:103F7000F6E72A465946E5612046FEF7D3FEE16999
:103F8000B9F1FF3FA1EB05050DD1AF420DD240F2D3
:103F9000FF1363644FF00B08DBE6A7F114024FF048
:103FA000FF392A44E6E74D45F1D133682B443360AD
:103FB00000283FF42AAF4FF400736364C7E6E95C5E
:103FC0000AF1010A02F80A1001336DE7B8F1000F97
:103FD0007FF471AF4FF0FF3A04F150084246594662
:103FE0002046C4F81C80FEF79DFEE369BAF1000F7D
:103FF000A3EB0802E36C24DA142AC8D89A42C6D389
:10400000A2EB030C9B1A1F44336805EB0C016344BD
:1040100033600023E36400283FF4F8AECBE7059B50
:10402000A3EB010AD145B2D8B8F1000FD4D00228D1
:10403000D2D033685344A3EB09033360C4F84CA0D7
:1040400090E75245DCD0A2E7FFFBFFBF2DE9F04F20
:1040500089B0DDF848809A469DF84C3004460493B8
:10406000D8F800308B460293002316461768136079
:10407000C8F80030029B149A0793D4E905138B42C9
:1040800004BF0023A361A56920464B1BBB4232BF7E
:104090000023049B7919CDE90032524607ABFFF7A4
:1040A0003BFE079A029B21699B1A0293D8F80030C5
:1040B00003901344C8F80030A3695846A3EB0509E0
:1040C000294492444A46059300F0AEFC059BCB443C
:1040D000ED1A33682F444B443360039B23B9B9F185
:1040E000000F01D0002FC5D1039809B0BDE8F08FB3
:1040F00010B504464B680846A16898470023A360A2
:1041000010BD70B54FF440751E46114483688D4054
:10411000044605F5F86513B1836C9D420DD0314618
:104120002046FFF7E5FF3046336869009847A060F6
:1041300028B100F55060E060A564002070BD022049
:10414000FCE738B504460D46FFF7D2FF6B682846FA
:10415000216998470023236138BD042A01D804202F
:104160007047D1F80130B3F5805F38BF4FF480530A
:1041700043600A78E02AF2D80923B2FBF3F303EB99
:10418000C301521A02700522B3FBF2F2827002EBF5
:1041900082029B1A4370002070470000F8B5044665
:1041A0001F461D4E3046FFF7D8FF3B46204672782B
:1041B0003178FFF7A6FF7368B3F1804F22D240F643
:1041C000FF721649B3F5800F28BF0A46D51825EAB5
:1041D000020521699D4238BF1D4611B16369AB429A
:1041E00012D038467B689847002329462361384619
:1041F0003B689847206138B920463946FFF778FF79
:104200000220F8BD064AE1E796E80300656184E80C
:1042100003000020F5E700BF24260030FFFF0F0059
:10422000FFFF3F005821F0B54FF0A0454FF4FA30A2
:10423000734B20275A6B012461F307025A635A6BB0
:10424000DFF8C8C142F440725A635A6B42F44062CC
:104250005A635A6B42F470425A635A6B42F080724E
:104260005A632A6E6FF3DF722A66664A116860F33A
:1042700011011160516867F307015160516864F3DF
:10428000092151600221506861F38B205060506811
:1042900061F30D30506050686FF38F3050600A202A
:1042A000566860F313465660566860F317565660BA
:1042B000566846F080765660566846F0007656603E
:1042C00056686FF39A665660566846F00066566008
:1042D000566846F080565660166846F0807616603E
:1042E0000C26D3F8BC2066F30E221F26C3F8BC2090
:1042F000D3F8BC2064F30602C3F8BC205A6A66F304
:1043000017420F265A621A6C66F3070246261A6491
:10431000D3F8BC2061F31242C3F8BC20D3F88C2040
:1043200066F306020B26C3F88C20D3F88C2066F3C4
:104330000B22C3F88C20D3F88C2064F30D32C3F821
:104340008C20D3F88C206FF38F32C3F88C20D3F8F5
:104350008C206FF31042C3F88C202B4A16686CF344
:1043600011061660566867F307065660566864F3D0
:1043700009265660546861F38B245460546861F3D5
:104380000D34546051686FF38F315160516860F3A0
:1043900013415160516860F317515160516841F009
:1043A00080715160516841F00071516051686FF344
:1043B0009A615160516841F000615160516841F06B
:1043C00080515160116841F0807111604FF0FF32EF
:1043D0002A65D3F8B42042F00072C3F8B420D3F8B1
:1043E000BC2042F40042C3F8BC20D3F8BC2042F009
:1043F0008002C3F8BC205A6A42F080725A62F0BD53
:104400000060005000C0015000F001508E2B0200EF
:1044100030B55A4B0E25D3F8BC203E2842F08052CE
:10442000C3F8BC20D3F89C206FF30202C3F89C2091
:10443000D3F89C2042F00802C3F89C204FF00602FB
:10444000D3F89C1062F30611C3F89C10D3F89C10AB
:1044500041F08001C3F89C10D3F89C106FF30A213F
:10446000C3F89C10D3F89C1041F40061C3F89C1071
:104470004FF00101D3F89C4061F30E34C3F89C4027
:10448000D3F89C4044F40044C3F89C40D3F89C40CB
:104490006FF31244C3F89C40D3F89C4044F40024CA
:1044A000C3F89C40D3F89C4065F31754C3F89C4074
:1044B000D3F89C406FF31864C3F89C40D3F89C4039
:1044C0006FF35964C3F89C40D3F89C406FF39B642E
:1044D000C3F89C40D3F89C4044F04054C3F89C403F
:1044E000D3F89C406FF39F74C3F89C40D3F8A84066
:1044F0006FF30104C3F8A840D3F8A0406FF302049F
:10450000C3F8A040D3F8A04044F00804C3F8A0408A
:1045100036D10224D3F8A01064F30611C3F8A0101A
:10452000D3F8A01041F08001C3F8A010D3F8A01078
:1045300062F30A21C3F8A010D3F8A0200C2142F4A2
:104540000062C3F8A020D3F8A02064F30E32C3F8B1
:10455000A020D3F8A02042F40042C3F8A020D3F852
:10456000A0206FF31242C3F8A020D3F8A02042F499
:104570000022C3F8A020D3F8A02081E10060005001
:104580003D2800F049817D28C3D1D3F8A0206FF3E6
:104590000612C3F8A020D3F8A02042F08002C3F88E
:1045A000A020D3F8A02061F30A220221C3F8A020A2
:1045B000D3F8A02042F40062C3F8A020D3F8A020D2
:1045C00061F30E32C3F8A020D3F8A02042F40042D9
:1045D000C3F8A020D3F8A0206FF31242C3F8A020A4
:1045E000D3F8A02042F40022C3F8A020D3F8A020E2
:1045F00065F317520321C3F8A020D04B3E28D3F80F
:10460000A0206FF31862C3F8A020D3F8A0206FF3A6
:104610005962C3F8A020D3F8A0206FF39B62C3F8BF
:10462000A020D3F8A02042F04052C3F8A020D3F835
:10463000A0206FF39F72C3F8A020D3F8A8206FF3D7
:104640008302C3F8A820D3F8A42061F30202C3F8C0
:10465000A420D3F8A42042F00802C3F8A420D3F881
:10466000A42061F306124FF00501C3F8A420D3F88B
:10467000A42042F08002C3F8A420D3F8A42042F47E
:10468000E062C3F8A420D3F8A42042F40062C3F887
:10469000A420D3F8A42042F4E042C3F8A420D3F825
:1046A000A42042F40042C3F8A420D3F8A42061F36C
:1046B00012424FF00E01C3F8A420D3F8A42042F414
:1046C0000022C3F8A420D3F8A42061F31752C3F842
:1046D000A420D3F8A4206FF31862C3F8A420D3F861
:1046E000A4206FF35962C3F8A420D3F8A4206FF379
:1046F0009B62C3F8A420D3F8A42042F04052C3F830
:10470000A420D3F8A4206FF39F72C3F8A420D3F899
:10471000A8206FF30512C3F8A8204FF00102D3F8C8
:10472000AC1062F31241C3F8AC10D3F8AC1041F4F2
:104730008011C3F8AC10D3F8AC106FF30101C3F8CB
:10474000AC10D3F8AC1041F00401C3F8AC10D3F8AE
:10475000AC1062F30611C3F8AC10D3F8AC106FF3D1
:104760000921C3F8AC10D3F8AC1041F48061C3F850
:10477000AC10D3F8AC1062F30E31C3F8AC10D3F820
:10478000B81041F40071C3F8B810D3F8B81062F350
:104790000E31C3F8B8104FF008011A6A42F4401203
:1047A0001A621A6A42F480021A62D3F8B02042F008
:1047B0000202C3F8B020D3F8B02042F00102C3F8DF
:1047C000B020D3F8B0206FF34102C3F8B020D3F883
:1047D000982061F30D22C3F898204FF00A02D3F815
:1047E000901062F30501C3F890104CD11721D3F853
:1047F000900061F30D20C3F89000D3F8900062F3AD
:104800001540C3F89000D3F8940062F30500C3F894
:104810009400D3F8942050E0D3F8A0206FF3061250
:10482000C3F8A020D3F8A02042F08002C3F8A02053
:10483000D3F8A02061F30A220221C3F8A020D3F804
:10484000A02042F40062C3F8A020D3F8A02061F3B6
:104850000E320821C3F8A020D3F8A02042F4004271
:10486000C3F8A020D3F8A0206FF31242C3F8A02011
:10487000D3F8A02042F40022C3F8A020D3F8A0204F
:1048800061F31752B6E63D2801D07D28AED1D3F8AA
:10489000901062F30D21C3F89010D3F8901062F3DA
:1048A0001541C3F89010D3F8941062F30501C3F8D2
:1048B00094100A21214BD3F8942061F30D22C3F800
:1048C00094200A2209201D4BD3F8941062F315415D
:1048D000C3F89410D3F8B81060F30301C3F8B8100C
:1048E000D3F8B81062F31751C3F8B810D3F8981082
:1048F00062F31341C3F898101D215A6A61F305024F
:104900005A624FF0FF314FF0A0421165D3F8B42046
:1049100042F00072C3F8B420D3F8BC2042F4004245
:10492000C3F8BC20D3F8BC2042F08002C3F8BC20FE
:104930005A6A42F080725A6230BD00BF0060005077
:1049400008B5FCF733FD144B144A9A60D3F888205D
:1049500042F47002C3F888205A6A42F470225A6204
:104960009A6A42F400729A62FFF752FD0020FCF747
:10497000ABFC0020FCF7F4FCFCF702FB40F2EF126A
:10498000074B9A61FFF74EFC064B074A1A60BDE8D9
:104990000840FDF76DBF00BF00ED00E00000001013
:1049A00000900050441000300048E801024B9A6B20
:1049B0005A639B6B704700BF0030005008B5064B30
:1049C000044613B10021AFF30080044B1B6803B110
:1049D0009847204600F068F9000000006C2700307E
:1049E00070B50D4D00260D4C641BA410A64209D1D4
:1049F0000B4D00260B4C00F059F9641BA410A64285
:104A000005D170BD55F8043B01369847EEE755F8DF
:104A1000043B01369847F2E79810003098100030B8
:104A2000981000309C1000300A44431E914200D17F
:104A3000704710B511F8014B914203F8014FF9D1BD
:104A400010BD0000024B0146186800F02DB800BFF1
:104A500048100030024B0146186800F0C9B800BF8A
:104A60004810003070B50F4E0C460546316811B93C
:104A700000F0A6F830602146284600F0A1F8431C5B
:104A800003D14FF0FF34204670BDC41C24F0030452
:104A9000A042F8D0211A284600F092F80130F2D155
:104AA000EFE700BF2C2600302DE9F843CD1C064669
:104AB00025F0030508350C2D38BF0C25002D01DB32
:104AC000A94204D90C2333600020BDE8F883DFF845
:104AD000D48000F069F8D8F800301C4644BB294661
:104AE0003046FFF7BFFF431C044658D1D8F80040BA
:104AF0002746002F43D1002C4BD02368394630463F
:104B000004EB030900F05CF8814542D1216830468E
:104B10006D1A2946FFF7A6FF01303AD023682B44CF
:104B20002360D8F800305A6862BBC8F800700FE004
:104B30002268521B20D40B2A17D96119A342256081
:104B400018BF5960636808BFC8F8001062514B6015
:104B5000304600F02FF804F10B00231D20F0070071
:104B6000C21A1CBF1B1AA350AFE76268A3420CBF56
:104B7000C8F800205A60EBE723466468AEE73C467D
:104B80007F68B6E71A465B68A342FBD100235360F7
:104B9000DEE70C233046336000F00CF894E7056044
:104BA000D6E700BF30260030014800F06BB800BFE8
:104BB00070270030014800F066B800BF7027003051
:104BC00038B50023054D044608462B6000F05CF81C
:104BD000431C02D12B6803B1236038BD7427003019
:104BE00002440346934200D1704703F8011BF9E7E2
:104BF00038B50546002941D051F8043C0C1F002B64
:104C0000B8BFE418FFF7D0FF1D4A136833B96360DB
:104C100014602846BDE83840FFF7CCBFA34208D94E
:104C2000206821188B4201BF19685B680918216050
:104C3000EDE71A465B680BB1A342FAD91168501828
:104C4000A0420BD120680144501811608342E0D18A
:104C500018685B68084453601060DAE702D90C23D7
:104C60002B60D6E7206821188B4202BF19685B6869
:104C70000918636008BF21605460CAE738BD00BFEF
:104C80003026003070477047054A0346106810B15F
:104C9000034413607047034803441360704700BF28
:104CA0007827003000800030FEE700BFF8B500BF75
:104CB000F8BC08BC9E467047F8B500BFF8BC08BCFD
:104CC0009E467047310300101D020010001242334F
:104CD000120140332D6D4033000CA010E7CF1718A0
:104CE000A00000A0242043335191403324B4423328
:104CF00000B4403500C6403512912810487AD310D0
:104D00009A400681100000A3BD9140335A912810AB
:104D100063B470109A300483007A2110B0100080C0
:104D200000B4403500C640352490403336B5423398
:104D30005A91281063B470109A300483008C2110AB
:104D4000B01000800901403300004030CFFC2A1031
:104D5000907BD3103FFD4233480F4333099E4133CC
:104D600012B041339A400681290000A3BD2143338C
:104D7000D89E291087FD7210005CC010EDDB1B1857
:104D8000400100A0906D40330064A010E7CF1718D9
:104D9000A00000A07E91403387B5423324A2403367
:104DA0000070A010EFDF1718950100A048FC4233F7
:104DB0005A0F433302A2003500A43835000000002A
:104DC0000000000000FE2120BD8CD510D0500082D4
:104DD000D0000097470000A8E0600082E000009744
:104DE0004D0000A8400000ADE0600082E0000097A8
:104DF000500000A809D8423312EA4233520000A002
:104E00003FD9423348EB4233520000A07ED94233AF
:104E100087EB4233540000AD850000A06C91403315
:104E200075B5423300B2A010ECD91718D70000A016
:104E300048D842335AEB4233BD8CD510D050008253
:104E4000D0000097630000A8E0600082E0000097B7
:104E5000690000A8840000A0E0600082E0000097E4
:104E60006C0000A80990403312B442336E0000A0D9
:104E70003F91403348B542336E0000A07E914033ED
:104E800087B5423300E2A010EFDF1718950100A0AC
:104E9000512043335A91281075D97210E17AD710F6
:104EA000B9500681780000A3BDC341330000000063
:104EB00000F8C010EDDB1B18400100A0000000004E
:104EC0000000000090914033E1B442330006A1108D
:104ED000EBD71718B80100A05AA24033540000AD18
:104EE000516C40330012A110E7CF1718A00000A0AA
:104EF00024A240336C91403375B54233001EA1109B
:104F0000EFDF1718950100A0120140301291281010
:104F10005A7AD3109A400681950000A3BDB540335C
:104F200036B528109A0000819A0000A700000235CB
:104F30009B0000A002000235000000F0007E40331C
:104F4000000040300256033502480035004A38352B
:104F5000005A40353F6C28102D487010B457BB10D4
:104F60000000000000000000000000009A00008126
:104F7000D20000A79D300847AD300C479A00008151
:104F8000C00000A3C90000A0000000000000000055
:104F90000000000090100086BD300247B000038181
:104FA000B0300086AC0000A0A0200086CD300247C3
:104FB000C0000481C0400086AC0000A09A100081AF
:104FC00090100086BC300681C50000A3030C781148
:104FD000BD300247B0000381B0300086AC0000A0B5
:104FE000A9200081A0200086CB400681CE0000A32E
:104FF000040C9811CD300247C0000481C0400086E7
:10500000AC0000A00048A010B0500080E7CF1B14F7
:10501000068000A00000000000000000E1C32B1883
:10502000E2C5731800B47835000000005A912810CA
:10503000BDB570109A30E0885A563B330066033590
:1050400062683B330078033500C40035000000007F
:10505000B4572B100000000000561335B75D233302
:1050600090100082B9300080B85D1B3300640B35AE
:1050700090100082B9300080B4571333005C1335B0
:10508000BA630B3300660335B9300080B55713336C
:10509000B95D1333B9630333B4650333B9300080AA
:1050A000B0000480DE0100A6BDB54033DA0100A0E7
:1050B000B7571333005C1335B4630333B66503335A
:1050C000B9300081B8571B33005E0B35B56303332D
:1050D000B7650333B9300081B9571333B45D133367
:1050E00000620335B8650333B9300081BA570B331A
:1050F000005A0335B55D133300620335B9650333D8
:10510000B930008162001410D0000347B000038161
:10511000F50100A6E1C32B14E2C57314EBD71714F5
:10512000058000A0000000005A91B8109050008047
:10513000A060008063A3B810B0500080C060008001
:10514000E4C92B18E5CB73183F6C28102D4870105C
:10515000BD45B910486C40335A7F40335148403305
:10516000635B4033B9500681520100A3BD45413312
:10517000A2904033A2B4423300AEA210EBD717186E
:10518000B80100A05A44413336904033A2B44233B0
:1051900000BAA210EBD71718B80100A05A6C403320
:1051A00024904033A2B4423300C6A210EBD71718A4
:1051B000B80100A05A484033CA400681670100A3E5
:1051C000BD5B40332D9040332DB4423300D8A21044
:1051D000EBD71718B80100A05A444133BD45B910A8
:1051E000D9500681710100A3BD454133DB500681D2
:1051F000740100A3BD454133B9300681770100A396
:10520000BD4940333F90403324B4423300F8A210EC
:10521000EBD71718B80100A05A7E4033BD45B9102E
:105220009D300681810100A3BD4940332D9040335C
:1052300024B44233000CA310EBD71718B80100A018
:105240005A5A4033CA4006818A0100A3BD5B4033ED
:10525000E4C92B14E5CB73143F6CB810D010008058
:10526000E02000802D44B910D0300080E040008064
:10527000EDDB1714058000A00000000000004030A6
:10528000486C40335A7F4033514840332490403378
:1052900024B44233003CA310EBD71718B80100A088
:1052A0005A44413336904033A2B442330048A310ED
:1052B000EBD71718B80100A05A6C4033A2904033C6
:1052C00024B442330054A310EBD71718B80100A040
:1052D0005A4441333F904033A2B442330060A3109C
:1052E000EBD71718B80100A05AB4423336904033B8
:1052F000EFDF1714058000A0000000000000403020
:105300003F6C2810A2487010BD57B910486C40334C
:105310005A7F403351484033000000000000000035
:1053200000000000B0000080390100A73F9040332A
:105330003FB4423300D0A110EBD71718B80100A03A
:105340005A44413336904033A2B4423300DCA110BA
:10535000EBD71718B80100A05A564133A29040333A
:10536000A2B4423300E8A110EBD71718B80100A08F
:105370005A4441333F90403324B4423300F4A110E7
:10538000EBD71718B80100A05A7E40332490403361
:1053900024B442330000A210EBD71718B80100A0C4
:1053A0005A484033BD57B9109B100680050100A62E
:1053B000BD6D4033BB300680080100A6BD494033B7
:1053C0009B3006810B0100A3BD494033369040332A
:1053D00024B442330020A210EBD71718B80100A064
:1053E0005A6C4033BD57B91099300680150100A69C
:1053F000BD4940339B100680180100A6BD6D4033A7
:10540000027A03359E300247900001819010008699
:10541000000000003690403336B442330044A210FE
:10542000EBD71718B80100A05A484033BD57B91040
:10543000BD300681270100A3BD494033BD30068140
:105440002A0100A3BD494033DB5006812D0100A392
:10545000BD57413336904033ABB442330064A210A1
:10546000EBD71718B80100A05A6C40335A01081046
:105470009C200681370100A3BDB542332490403300
:105480003FA24033ECD91714058000A000000000B3
:10549000512563FCC2CAB9F3849E17A7ADFAE6BCD6
:1054A000FFFFFFFFFFFFFFFF00000000FFFFFFFF08
:1054B00096C298D84539A1F4A033EB2D817D0377AE
:1054C000F240A463E5E6BCF847422CE1F2D1176B49
:1054D000F551BF376840B6CBCE5E316B5733CE2B1C
:1054E000169E0F7C4AEBE78E9B7F1AFEE242E34F4B
:1054F000FFFFFFFFFFFFFFFFFFFFFFFF00000000B8
:10550000000000000000000001000000FFFFFFFF9E
:10551000800000000000000000000000000000000B
:10552000000000000000000000000000000000007B
:10553000000000000000000000000000000000006B
:10554000000000000000000000000000000000005B
:10555000982F8A4291443771CFFBC0B5A5DBB5E9DE
:105560005BC25639F111F159A4823F92D55E1CAB52
:1055700098AA07D8015B8312BE853124C37D0C55E0
:10558000745DBE72FEB1DE80A706DC9B74F19BC128
:10559000C1699BE48647BEEFC69DC10FCCA10C2418
:1055A0006F2CE92DAA84744ADCA9B05CDA88F976FC
:1055B00052513E986DC631A8C82703B0C77F59BF66
:1055C000F30BE0C64791A7D55163CA066729291492
:1055D000850AB72738211B2EFC6D2C4D130D38532F
:1055E00054730A65BB0A6A762EC9C281852C7292F1
:1055F000A1E8BFA24B661AA8708B4BC2A3516CC71F
:1056000019E892D1240699D685350EF470A06A1057
:1056100016C1A419086C371E4C774827B5BCB034A6
:10562000B30C1C394AAAD84E4FCA9C5BF36F2E6844
:10563000EE828F746F63A5781478C8840802C78CD3
:10564000FAFFBE90EB6C50A4F7A3F9BEF27871C6D6
:1056500067E6096A85AE67BB72F36E3C3AF54FA503
:105660007F520E518C68059BABD9831F19CDE05B2F
:1056700000200150C01400301000010100000000A3
:1056800000300150981400301101010100000000A9
:10569000005002507014003012020101000000009E
:1056A00000000000ECAAFF7F01000000D4560010AB
:1056B000440000301704000000000000000000005B
:1056C00000000000A0100030B7050000000000003E
:1056D00000000000000000000000000000000000CA
:1056E000FFFFFFFF00000000FFFFFFFFFFFFFFFFC6
:1056F000FFFFFFFF00000000020000001800000094
:10570000FFFFFFFF00000000030000001900000081
:10571000FFFFFFFF00000000040000002400000065
:10572000FFFFFFFF00000000050000000000000078
:10573000FFFFFFFF00000000060000001A0000004D
:10574000FFFFFFFF00000000FFFFFFFFFFFFFFFF65
:10575000FFFFFFFF0100000000000000000000004C
:10576000FFFFFFFF01000000FFFFFFFFFFFFFFFF44
:10577000FFFFFFFF01000000020000001800000012
:10578000FFFFFFFF01000000030000001900000000
:10579000FFFFFFFF010000000400000025000000E3
:1057A000FFFFFFFF010000000500000000000000F7
:1057B000FFFFFFFF01000000060000001A000000CC
:1057C000FFFFFFFF01000000FFFFFFFFFFFFFFFFE4
:1057D000FFFFFFFF020000000000000000000000CB
:1057E000FFFFFFFF02000000FFFFFFFFFFFFFFFFC3
:1057F000FFFFFFFF02000000020000001800000091
:10580000FFFFFFFF0200000003000000190000007E
:10581000FFFFFFFF02000000040000002600000060
:10582000FFFFFFFF02000000050000000000000075
:10583000FFFFFFFF02000000060000001A0000004A
:10584000FFFFFFFF02000000FFFFFFFFFFFFFFFF62
:10585000FFFFFFFF03000000000000000000000049
:10586000FFFFFFFF03000000FFFFFFFFFFFFFFFF41
:10587000FFFFFFFF0300000002000000180000000F
:10588000FFFFFFFF030000000300000019000000FD
:10589000FFFFFFFF0300000004000000FFFFFFFF09
:1058A00008000010030000000500000000000000D8
:1058B000FFFFFFFF03000000060000001A000000C9
:1058C000FFFFFFFF03000000FFFFFFFFFFFFFFFFE1
:1058D000FFFFFFFF040000000000000000000000C8
:1058E000FFFFFFFF040000000100000015000000A2
:1058F0000000005004000000FFFFFFFFFFFFFFFF5C
:10590000FFFFFFFF04000000FFFFFFFFFFFFFFFF9F
:10591000FFFFFFFF0400000004000000270000005C
:10592000FFFFFFFF04000000050000000000000072
:10593000FFFFFFFF0400000006000000020000005F
:10594000FFFFFFFF04000000FFFFFFFFFFFFFFFF5F
:10595000FFFFFFFF05000000000000000000000046
:10596000FFFFFFFF0500000001000000160000001F
:105970000800005005000000FFFFFFFFFFFFFFFFD2
:10598000FFFFFFFF05000000FFFFFFFFFFFFFFFF1E
:10599000FFFFFFFF050000000400000027000000DB
:1059A000FFFFFFFF050000000500000000000000F1
:1059B000FFFFFFFF0500000006000000FFFFFFFFE4
:1059C0000000000005000000FFFFFFFFFFFFFFFFDA
:1059D000FFFFFFFF060000000000000000000000C5
:1059E000FFFFFFFF060000000100000012000000A2
:1059F0000800004006000000FFFFFFFFFFFFFFFF61
:105A0000FFFFFFFF06000000FFFFFFFFFFFFFFFF9C
:105A1000FFFFFFFF06000000FFFFFFFFFFFFFFFF8C
:105A2000FFFFFFFF0600000005000000000000006F
:105A3000FFFFFFFF0600000006000000040000005A
:105A4000FFFFFFFF06000000FFFFFFFFFFFFFFFF5C
:105A5000FFFFFFFF07000000000000000000000043
:105A6000FFFFFFFF0700000001000000170000001B
:105A70000000004007000000FFFFFFFFFFFFFFFFE7
:105A8000FFFFFFFF07000000FFFFFFFFFFFFFFFF1B
:105A9000FFFFFFFF07000000FFFFFFFFFFFFFFFF0B
:105AA000FFFFFFFF070000000500000000000000EE
:105AB000FFFFFFFF0700000006000000FFFFFFFFE1
:105AC0001000000007000000FFFFFFFFFFFFFFFFC7
:105AD000FFFFFFFF080000000000000000000000C2
